:100000000C942A000C943F000C943F000C943F0089
:100010000C943F000C943F000C943F000C943F0064
:100020000C943F000C943F000C943F000C943F0054
:100030000C943F000C943F000C943F000C943F0044
:100040000C943F000C943F000C943F000C943F0034
:100050000C943F0011241FBECFE5D8E0DEBFCDBF1A
:1000600011E0A0E6B0E0E4E2F3E002C005900D92FA
:10007000A834B107D9F70E9411010C9490010C9497
:1000800000000C9462010C9479010C948C014423BF
:1000900079F1413009F05FC0813079F028F0823089
:1000A000A9F08330E1F008952AB381E090E001C027
:1000B000880F6A95EAF7822B2CC027B381E090E085
:1000C00001C0880F6A95EAF7822B2EC024B381E025
:1000D00090E001C0880F6A95EAF7822B30C021B307
:1000E00081E090E001C0880F6A95EAF7822B32C068
:1000F000813089F028F08230C9F0833011F1089501
:100100002AB381E090E001C0880F6A95EAF78095F4
:1001100082238ABB089527B381E090E001C0880F55
:100120006A95EAF78095822387BB089524B381E01E
:1001300090E001C0880F6A95EAF78095822384BB1E
:10014000089521B381E090E001C0880F6A95EAF735
:100150008095822381BB0895442379F1413009F0D1
:100160005FC0813079F028F08230A9F08330E1F06F
:1001700008952BB381E090E001C0880F6A95EAF7FB
:10018000822B2CC028B381E090E001C0880F6A95D3
:10019000EAF7822B2EC025B381E090E001C0880FE2
:1001A0006A95EAF7822B30C022B381E090E001C06B
:1001B000880F6A95EAF7822B32C0813089F028F0E7
:1001C0008230C9F0833011F108952BB381E090E0C3
:1001D00001C0880F6A95EAF7809582238BBB08954A
:1001E00028B381E090E001C0880F6A95EAF7809516
:1001F000822388BB089525B381E090E001C0880F79
:100200006A95EAF78095822385BB089522B381E041
:1002100090E001C0880F6A95EAF78095822382BB3F
:1002200008950E9441000E9441010E9458012FEF51
:1002300089E698E1215080409040E1F700C000003D
:1002400080E690E00E94430081E890E00E94430035
:1002500087EA90E00E9443008FEC90E00E94430008
:1002600088EF90E00E94430085E191E00E94430006
:100270008EE291E00E9443000E9445000E945D01D1
:10028000FBCF41E064E081E00E94470041E065E08F
:1002900081E00E94470040E066E081E00E94470064
:1002A00041E067E081E00E94470083E58DB9089551
:1002B00040E064E081E00C94AC008FB9779BFECF06
:1002C0008FB1089541E061E083E00E94470040E083
:1002D00060E083E00E9447008AB188618AB980B5F6
:1002E000866880BD83E389B908958CB95D9BFECF94
:1002F00008950F931F93CF938C01C0E0F801EC0F8A
:10030000F11D8081882321F00E947501CF5FF6CF17
:10031000CF911F910F9108955F9BFECF8CB10895EF
:04032000F894FFCF7F
:1003240070726573732030203A206D656173757245
:10033400652074656D70657261747572650A20203C
:100344000070726573732031203A20666F722074D6
:1003540075726E696E67206C69676874206F6E2FA2
:100364006F66660A20200070726573732032203A2B
:10037400206F70656E2074686520636172706574A7
:10038400206279206463206D6F746F720A2000709C
:10039400726573732033203A20636C6F7365207425
:1003A40068652063617270657420627920646320DB
:1003B4006D6F746F720A200070726573732034203D
:1003C4003A2073746F7020746865206463206D6FC5
:1003D400746F720A0070726573732035203A206F4F
:1003E40070656E2074686520646F6F720A007072A5
:1003F4006573732036203A20636C6F7365207468CC
:080404006520646F6F720A00AD
:00000001FF
