S0120000736D617274736C6176652E73726563D0
S11300000C9431000C9443000C9443000C94430072
S11300100C9443000C9443000C9443000C94BA03D6
S11300200C9443000C9443000C9443000C94680318
S11300300C9443000C9443000C9443000C94430030
S11300400C9443000C9443000C9443000C94430020
S11300500C944300FA021003130315032003230333
S1130060250311241FBECFE5D8E0DEBFCDBF20E0BD
S1130070A0E6B0E001C01D92A537B207E1F70E94E7
S1130080D9020C944B060C9400003F983E9A389A7F
S1130090359A309A319A329A33983D98379A08951E
S11300A0369A349BFECF64B175B144EF51E0649F3E
S11300B09001659F300D749F300D1124232F2695D8
S11300C02695FC0120831182089541E063E082E0DB
S11300D00E949A0041E064E082E00E949A000C943D
S11300E00904882319F0813041F0089541E063E068
S11300F082E00E94FF0040E006C040E063E082E04E
S11301000E94FF0041E064E082E00C94FF00880F4D
S1130110982F990F990F890F0C9411040C941B04B8
S113012040E063E082E00E94FF0040E064E082E09F
S11301300C94FF00442379F1413009F05FC0813011
S113014079F028F08230A9F08330E1F008952AB3E1
S113015081E090E001C0880F6A95EAF7822B2CC0F9
S113016027B381E090E001C0880F6A95EAF7822BFB
S11301702EC024B381E090E001C0880F6A95EAF7AD
S1130180822B30C021B381E090E001C0880F6A95D2
S1130190EAF7822B32C0813089F028F08230C9F02E
S11301A0833011F108952AB381E090E001C0880FF3
S11301B06A95EAF7809582238ABB089527B381E084
S11301C090E001C0880F6A95EAF78095822387BB87
S11301D0089524B381E090E001C0880F6A95EAF79E
S11301E08095822384BB089521B381E090E001C00F
S11301F0880F6A95EAF78095822381BB089544238A
S113020079F1413009F05FC0813079F028F0823013
S1130210A9F08330E1F008952BB381E090E001C0B0
S1130220880F6A95EAF7822B2CC028B381E090E00E
S113023001C0880F6A95EAF7822B2EC025B381E0AE
S113024090E001C0880F6A95EAF7822B30C022B390
S113025081E090E001C0880F6A95EAF7822B32C0F2
S1130260813089F028F08230C9F0833011F108958B
S11302702BB381E090E001C0880F6A95EAF780957E
S113028082238BBB089528B381E090E001C0880FDE
S11302906A95EAF78095822388BB089525B381E0A7
S11302A090E001C0880F6A95EAF78095822385BBA8
S11302B0089522B381E090E001C0880F6A95EAF7BF
S11302C08095822382BB0895813081F028F08230AA
S11302D0B9F08330F9F008952BB381E090E001C0C8
S11302E0880F6A95EAF782278BBB089528B381E0CB
S11302F090E001C0880F6A95EAF7822788BB0895C9
S113030025B381E090E001C0880F6A95EAF782275F
S113031085BB089522B381E090E001C0880F6A95FF
S1130320EAF7822782BB0895EFEFE80F61E070E0FF
S113033080E090E0EE2341F0AAE0B0E09B01AC0144
S11303400E943106E150F6CF0895CF93C82F40E0C4
S113035060E081E00E94FF0040E061E081E00E94F3
S1130360FF0040E062E081E00E94FF008C2F807F6C
S11303708BBB41E062E081E00E94FF008FEC97E0DC
S11303800197F1F700C0000040E062E081E00E94C4
S1130390FF00C295C07FCBBB41E062E081E00E94D8
S11303A0FF008FEC97E00197F1F700C0000040E0F8
S11303B062E081E00E94FF008FE097E20197F1F78D
S11303C000C00000CF91089541E060E081E00E9408
S11303D09A0041E061E081E00E949A0041E062E01D
S11303E081E00E949A0041E064E080E00E949A006B
S11303F041E065E080E00E949A0041E066E080E030
S11304000E949A0041E067E080E00E949A002FEF8A
S113041080E792E0215080409040E1F700C0000066
S113042083E30E94A50182E30E94A50188E20E9461
S1130430A5018CE00E94A50181E00C94A501CF9355
S1130440C82F41E060E081E00E94FF0040E061E0ED
S113045081E00E94FF0040E062E081E00E94FF0032
S11304608C2F807F8BBB41E062E081E00E94FF0023
S11304708FEC97E00197F1F700C0000040E062E0E4
S113048081E00E94FF00C295C07FCBBB41E062E0E7
S113049081E00E94FF008FEC97E00197F1F700C024
S11304A0000040E062E081E00E94FF008FE097E2FC
S11304B00197F1F700C00000CF9108953F924F9249
S11304C05F926F927F928F929F92AF92BF92CF92E0
S11304D0DF92EF92FF920F931F93CF93DF936B0101
S11304E07C0197FF0BC08DE20E941F02F094E09400
S11304F0D094C094C11CD11CE11CF11CA70196012D
S1130500C1E09AE0892E912CA12CB12CCA01B90129
S1130510A50194010E940C062115310541055105E0
S113052011F0CF5FF3CF8C2F0E9494014B015C013B
S11305308AE0482E512C612C712CCC23E1F0C701A8
S1130540B601A50194010E940C06362E072F182F20
S1130550D92F80E3820F0E941F02C32CD02EE12EDC
S1130560FD2EC501B401A30192010E940C064901AC
S11305705A01C150E2CFDF91CF911F910F91FF90AB
S1130580EF90DF90CF90BF90AF909F908F907F902F
S11305906F905F904F903F90089581E00C94A50177
S11305A041E062E082E00C949A0062E082E00C9404
S11305B06401CF93DF9300D0CDB7DEB70E94E4018E
S11305C00E94D0020E9464030E9465000E942903D5
S11305D00E9448031A82198284E190E00E945F031A
S11305E0FC01FF27F097E730F105B0F7E65DFF4F18
S11305F00C942B06CE0101960E9466030E94CD0244
S113060069817A8180E090E00E945E022FEF80E7AA
S113061092E0215080409040E1F700C00000DCCF20
S11306200E94D502D9CF80E003C00E94900081E0EF
S11306300E9471008AE00E9487000E948E00CCCF45
S11306400E949000C9CF84EB01C080E00E94320375
S1130650C3CF41E065E083E00E949A000E941F043A
S11306600C943B04682F70E080E090E00E94DD046D
S113067023ED3CEB43EE5CE30E94690520E030E0AF
S113068040EA50E40E9440040E94AC040C942A0402
S113069040E064E081E00E949A0040E065E081E08F
S11306A00E949A0041E066E081E00E949A0040E0E6
S11306B067E081E00E949A0083E48DB908958FB9C0
S11306C0779BFECF8FB108950C9445000C94500095
S11306D01F920F920FB60F9211242F933F934F93B3
S11306E05F936F937F938F939F93AF93BF93EF9396
S11306F0FF938091640090916500A0916600B09191
S113070067000196A11DB11D80936400909365005C
S1130710A0936600B093670040916E0050916F0003
S1130720609170007091710084179507A607B70750
S113073081F48091720082BF10926400109265006F
S11307401092660010926700E0917300F0917400BB
S11307500995FF91EF91BF91AF919F918F917F91F7
S11307606F915F914F913F912F910F900FBE0F901A
S11307701F9018951F920F920FB60F9211242F936A
S11307803F934F935F936F937F938F939F93AF9315
S1130790BF93EF93FF938091600090916100A091CB
S11307A06200B09163000196A11DB11D80936000A9
S11307B090936100A0936200B0936300409168003D
S11307C05091690060916A0070916B0084179507DD
S11307D0A607B70769F410926000109261001092A6
S11307E0620010926300E0916C00F0916D00099535
S11307F0FF91EF91BF91AF919F918F917F916F91F5
S11308005F914F913F912F910F900FBE0F901F90CA
S11308101895BB9A83B7886483BF83B7806283BF0C
S1130820089520E0982F822F64E670E00E94D60598
S113083061506CBF089583B7836083BF08958FB5FB
S113084082688FBD8EB58C618EBD8CE892E097BDB9
S113085086BD08959B01AC01ACE8B2E00E9431066C
S113086024E630E040E050E00E94EA0521503109DE
S11308703BBD2ABD08958EB584608EBD0895505841
S1130880BB27AA270E9457040C942F050E94210518
S113089038F00E94280520F039F49F3F19F426F41B
S11308A00C941E050EF4E095E7FB0C941805E92F53
S11308B00E94400558F3BA17620773078407950727
S11308C020F079F4A6F50C9462050EF4E0950B2E55
S11308D0BA2FA02D0B01B90190010C01CA01A0018E
S11308E01124FF27591B99F0593F50F4503E68F1E9
S11308F01A16F040A22F232F342F4427585FF3CF2A
S1130900469537952795A795F0405395C9F77EF4FA
S11309101F16BA0B620B730B840BBAF09150A1F043
S1130920FF0FBB1F661F771F881FC2F70EC0BA0FC9
S1130930621F731F841F48F4879577956795B79551
S1130940F7959E3F08F0B0CF9395880F08F099274C
S1130950EE0F9795879508950E94480588F09F5754
S113096098F0B92F9927B751B0F0E1F0660F771FCF
S1130970881F991F1AF0BA95C9F714C0B13091F0C5
S11309800E946205B1E008950C946205672F782FE8
S11309908827B85F39F0B93FCCF38695779567958A
S11309A0B395D9F73EF490958095709561957F4FF6
S11309B08F4F9F4F0895E89409C097FB3EF490959C
S11309C08095709561957F4F8F4F9F4F9923A9F024
S11309D0F92F96E9BB279395F695879577956795B3
S11309E0B795F111F8CFFAF4BB0F11F460FF1BC0F7
S11309F06F5F7F4F8F4F9F4F16C0882311F096E98A
S1130A0011C0772321F09EE8872F762F05C0662337
S1130A1071F096E8862F70E060E02AF09A95660FF0
S1130A20771F881FDAF7880F9695879597F90895A9
S1130A3097F99F6780E870E060E008959FEF80EC8D
S1130A40089500240A941616170618060906089530
S1130A5000240A9412161306140605060895092E96
S1130A600394000C11F4882352F0BB0F40F4BF2B05
S1130A7011F460FF04C06F5F7F4F8F4F9F4F089545
S1130A8057FD9058440F551F59F05F3F71F047953B
S1130A90880F97FB991F61F09F3F79F08795089520
S1130AA0121613061406551FF2CF4695F1DF08C03F
S1130AB0161617061806991FF1CF8695710561055C
S1130AC008940895E894BB2766277727CB0197F904
S1130AD008950E947C050C942F050E94210538F08E
S1130AE00E94280520F0952311F00C9418050C940D
S1130AF01E0511240C9463050E94400570F3959F14
S1130B00C1F3950F50E0551F629FF001729FBB2700
S1130B10F00DB11D639FAA27F00DB11DAA1F649F9C
S1130B206627B00DA11D661F829F2227B00DA11D4F
S1130B30621F739FB00DA11D621F839FA00D611DD5
S1130B40221F749F3327A00D611D231F849F600DF6
S1130B50211D822F762F6A2F11249F5750409AF01F
S1130B60F1F088234AF0EE0FFF1FBB1F661F771FAB
S1130B70881F91505040A9F79E3F510580F00C9476
S1130B8018050C9463055F3FE4F3983ED4F386950F
S1130B9077956795B795F795E7959F5FC1F7FE2B16
S1130BA0880F911D9695879597F90895AA1BBB1BED
S1130BB051E107C0AA1FBB1FA617B70710F0A61B59
S1130BC0B70B881F991F5A95A9F780959095BC017A
S1130BD0CD010895A1E21A2EAA1BBB1BFD010DC075
S1130BE0AA1FBB1FEE1FFF1FA217B307E407F507D9
S1130BF020F0A21BB30BE40BF50B661F771F881FB5
S1130C00991F1A9469F760957095809590959B014A
S1130C10AC01BD01CF010895052E97FB1EF400948D
S1130C200E94230657FD07D00E94EA0507FC03D063
S1130C304EF40C94230650954095309521953F4FE2
S1130C404F4F5F4F089590958095709561957F4FB4
S1130C508F4F9F4F0895EE0FFF1F0590F491E02DE5
S1130C6009940E943C06A59F900DB49F900DA49FEB
S1130C70800D911D11240895A29FB001B39FC0015E
S1130C80A39F700D811D1124911DB29F700D811DB4
S10D0C901124911D0895F894FFCF7C
S9030000FC
