S0120000736D617274736C6176652E73726563D0
S11300000C942A000C943C000C943C000C943C008E
S11300100C943C000C943C000C943C000C94F803AD
S11300200C943C000C943C000C943C000C94A603EF
S11300300C943C000C943C000C943C000C943C004C
S11300400C943C000C943C000C943C000C943C003C
S11300500C943C0011241FBECFE5D8E0DEBFCDBF19
S113006020E0A0E6B0E001C01D92A537B207E1F799
S11300700E9434030C94C2040C9400003F983E9AEE
S1130080389A359A309A319A329A33983D98379AF9
S11300900895369A349BFECF64B175B144EF51E0B4
S11300A0649F9001659F300D749F300D1124232FA0
S11300B026952695FC0120831182089541E063E092
S11300C082E00E949C0041E064E082E00E949C0087
S11300D00E9447040895882319F0813061F008953F
S11300E041E063E082E00E940D0140E064E082E0D0
S11300F00E940D01089540E063E082E00E940D013A
S113010041E064E082E00E940D010895880F982F79
S1130110990F990F890F0E944F0408950E945F045C
S1130120089540E063E082E00E940D0140E064E055
S113013082E00E940D0108954423B9F1413009F091
S11301406BC0813089F028F08230C9F0833011F11E
S113015008952AB381E090E002C0880F991F6A9540
S1130160E2F7822B8ABB089527B381E090E002C0B6
S1130170880F991F6A95E2F7822B87BB089524B3F1
S113018081E090E002C0880F991F6A95E2F7822B04
S113019084BB089521B381E090E002C0880F991FC9
S11301A06A95E2F7822B81BB0895813091F028F0A3
S11301B08230D9F0833029F108952AB381E090E0A8
S11301C002C0880F991F6A95E2F7809582238ABB43
S11301D0089527B381E090E002C0880F991F6A95C3
S11301E0E2F78095822387BB089524B381E090E0F1
S11301F002C0880F991F6A95E2F78095822384BB19
S1130200089521B381E090E002C0880F991F6A9598
S1130210E2F78095822381BB08954423B9F14130EC
S113022009F06BC0813089F028F08230C9F0833046
S113023011F108952BB381E090E002C0880F991F5B
S11302406A95E2F7822B8BBB089528B381E090E096
S113025002C0880F991F6A95E2F7822B88BB089524
S113026025B381E090E002C0880F991F6A95E2F7F8
S1130270822B85BB089522B381E090E002C0880FF1
S1130280991F6A95E2F7822B82BB0895813091F021
S113029028F08230D9F0833029F108952BB381E01E
S11302A090E002C0880F991F6A95E2F78095822337
S11302B08BBB089528B381E090E002C0880F991F9A
S11302C06A95E2F78095822388BB089525B381E07F
S11302D090E002C0880F991F6A95E2F78095822307
S11302E085BB089522B381E090E002C0880F991F76
S11302F06A95E2F78095822382BB0895813089F064
S113030028F08230C9F0833011F108952BB381E0D5
S113031090E002C0880F991F6A95E2F782278BBB91
S1130320089528B381E090E002C0880F991F6A9570
S1130330E2F7822788BB089525B381E090E002C0EC
S1130340880F991F6A95E2F7822785BB089522B327
S113035081E090E002C0880F991F6A95E2F7822736
S113036082BB0895CF92DF92EF92FF922FEF280F76
S1130370E9F061E070E080E090E0DC01CB01880FFF
S1130380991FAA1FBB1F6C017D01CC0CDD1CEE1C48
S1130390FF1CCC0CDD1CEE1CFF1CBC01CD016C0D44
S11303A07D1D8E1D9F1D215041F704C061E070E04A
S11303B080E090E0FF90EF90DF90CF900895CF938E
S11303C0C82F40E061E081E00E940D0140E062E05E
S11303D081E00E940D0140E063E081E00E940D0194
S11303E08C2F807F8BBB41E063E081E00E940D0194
S11303F08FEC97E00197F1F700C0000040E063E064
S113040081E00E940D01C295C07FCBBB41E063E057
S113041081E00E940D018FEC97E00197F1F700C095
S1130420000040E063E081E00E940D018FE097E26C
S11304300197F1F700C00000CF91089541E061E019
S113044081E00E949C0041E062E081E00E949C0007
S113045041E063E081E00E949C0041E064E080E0D0
S11304600E949C0041E065E080E00E949C0041E025
S113047066E080E00E949C0041E067E080E00E942A
S11304809C002FEF80E792E0215080409040E1F7FC
S113049000C0000083E30E94DF0182E30E94DF01C9
S11304A088E20E94DF018CE00E94DF0181E00E946B
S11304B0DF010895CF93C82F41E061E081E00E94FD
S11304C00D0140E062E081E00E940D0140E063E044
S11304D081E00E940D018C2F807F8BBB41E063E0A3
S11304E081E00E940D018FEC97E00197F1F700C0C5
S11304F0000040E063E081E00E940D01C295C07FEE
S1130500CBBB41E063E081E00E940D018FEC97E0FA
S11305100197F1F700C0000040E063E081E00E9431
S11305200D018FE097E20197F1F700C00000CF9131
S113053008953F924F925F926F927F928F929F9213
S1130540AF92BF92CF92DF92EF92FF920F931F93DD
S1130550CF93DF936B017C0199235CF48DE20E94BD
S11305605A02F094E094D094C094C11CD11CE11CB4
S1130570F11CC701B6012AE030E040E050E00E94DF
S11305809404211531054105510509F43FC0C1E02A
S11305900F2EFAE08F2E912CA12CB12CF02DCF5FD1
S11305A0CA01B901A50194010E94940421153105E1
S11305B041055105A1F78C2F0E94B2014B015C014A
S11305C0CC2389F10F2EFAE04F2E512C612C712C83
S11305D0F02DC701B601A50194010E949404362EA2
S11305E0072F182FD92F80E3820F0E945A02C32CA1
S11305F0D02EE12EFD2EC501B401A30192010E946B
S1130600940449015A01C15021F70DC081E00E94B0
S1130610B2019B01AC01C701B6010E94940480E3BE
S1130620820F0E945A02DF91CF911F910F91FF9088
S1130630EF90DF90CF90BF90AF909F908F907F907E
S11306406F905F904F903F90089581E00E94DF018A
S1130650089541E062E082E00E949C00089562E017
S113066082E00E947E010895CF93DF9300D0CDB73E
S1130670DEB70E941E020E9429031A8219820E9478
S1130680A0030E945E000E947A030E94840384E116
S11306900E949B038133F9F018F4803331F0F7CFD3
S11306A08233E1F0833319F1F2CFCE0101960E9437
S11306B0A3030E94250369817A8180E090E00E946F
S11306C099022FEF84E39CE0215080409040E1F7B1
S11306D000C00000DCCF0E942F03D9CF80E00E942D
S11306E06B008AE00E9486000E948E00D0CF0E9498
S11306F09100CDCF41E065E083E00E949C000E9420
S113070063040E946E04089540E064E081E00E9466
S11307109C0040E065E081E00E949C0041E066E0CE
S113072081E00E949C0040E067E081E00E949C0020
S113073083E48DB908958FB9779BFECF8FB1089567
S11307400E943E0008950E94490008951F920F924E
S11307500FB60F9211242F933F934F935F936F9390
S11307607F938F939F93AF93BF93EF93FF93809166
S1130770640090916500A0916600B09167000196B5
S1130780A11DB11D8093640090936500A093660041
S1130790B093670040916E0050916F0060917000BB
S11307A07091710084179507A607B70781F48091AB
S11307B0720082BF1092640010926500109266006D
S11307C010926700E0917300F09174000995FF9115
S11307D0EF91BF91AF919F918F917F916F915F91B5
S11307E04F913F912F910F900FBE0F901F9018952E
S11307F01F920F920FB60F9211242F933F934F9392
S11308005F936F937F938F939F93AF93BF93EF9374
S1130810FF938091600090916100A0916200B0917B
S113082063000196A11DB11D809360009093610047
S1130830A0936200B09363004091680050916900F6
S113084060916A0070916B0084179507A607B7073B
S113085069F410926000109261001092620010928C
S11308606300E0916C00F0916D000995FF91EF91A8
S1130870BF91AF919F918F917F916F915F914F91B4
S11308803F912F910F900FBE0F901F901895BB9A18
S113089083B7886483BF83B7806283BF089520E0F1
S11308A030E0382F3695279536952795ABE7B4E198
S11308B00E94B3049695879581508CBF089583B7A1
S11308C0836083BF08958FB582688FBD8EB58C61B8
S11308D08EBD8CE892E097BD86BD08958EB5846088
S11308E08EBD0895A1E21A2EAA1BBB1BFD010DC0EB
S11308F0AA1FBB1FEE1FFF1FA217B307E407F507CC
S113090020F0A21BB30BE40BF50B661F771F881FA7
S1130910991F1A9469F760957095809590959B013D
S1130920AC01BD01CF010895052E97FB1EF4009480
S11309300E94AB0457FD07D00E94720407FC03D049
S11309404EF40C94AB0450954095309521953F4F4F
S11309504F4F5F4F089590958095709561957F4FA7
S11309608F4F9F4F0895A29FB001B39FC001A39FD3
S1130970700D811D1124911DB29F700D811D1124D4
S10B0980911D0895F894FFCFC6
S9030000FC
