:100000000C942A000C943C000C943C000C943C0092
:100010000C943C000C943C000C943C000C94410269
:100020000C943C000C943C000C943C000C94EF01AC
:100030000C943C000C943C000C943C000C943C0050
:100040000C943C000C943C000C943C000C943C0040
:100050000C943C0011241FBECFE5D8E0DEBFCDBF1D
:1000600020E0A0E6B0E001C01D92A537B207E1F79D
:100070000E94B5010C94A7020C9400003F983E9A90
:10008000389A359A309A319A329A33983D98379AFD
:1000900008954423B9F1413009F06BC0813089F0F3
:1000A00028F08230C9F0833011F108952AB381E03D
:1000B00090E002C0880F991F6A95E2F7822B8ABBF5
:1000C000089527B381E090E002C0880F991F6A95D8
:1000D000E2F7822B87BB089524B381E090E002C051
:1000E000880F991F6A95E2F7822B84BB089521B38C
:1000F00081E090E002C0880F991F6A95E2F7822B99
:1001000081BB0895813091F028F08230D9F083309E
:1001100029F108952AB381E090E002C0880F991F69
:100120006A95E2F7809582238ABB089527B381E020
:1001300090E002C0880F991F6A95E2F780958223AC
:1001400087BB089524B381E090E002C0880F991F17
:100150006A95E2F78095822384BB089521B381E0FC
:1001600090E002C0880F991F6A95E2F7809582237C
:1001700081BB08954423B9F1413009F06BC081304F
:1001800089F028F08230C9F0833011F108952BB343
:1001900081E090E002C0880F991F6A95E2F7822BF8
:1001A0008BBB089528B381E090E002C0880F991FAF
:1001B0006A95E2F7822B88BB089525B381E090E031
:1001C00002C0880F991F6A95E2F7822B85BB0895BC
:1001D00022B381E090E002C0880F991F6A95E2F790
:1001E000822B82BB0895813091F028F08230D9F0C3
:1001F000833029F108952BB381E090E002C0880F8D
:10020000991F6A95E2F7809582238BBB089528B3E6
:1002100081E090E002C0880F991F6A95E2F780950F
:10022000822388BB089525B381E090E002C0880F47
:10023000991F6A95E2F78095822385BB089522B3C2
:1002400081E090E002C0880F991F6A95E2F78095DF
:10025000822382BB0895CF93C82F40E061E081E004
:100260000E94BA0040E062E081E00E94BA0040E0F3
:1002700063E081E00E94BA008BB39C2F907F8F7067
:10028000892B8BBB41E063E081E00E94BA008FE9DB
:100290009FE00197F1F700C0000040E063E081E0DB
:1002A0000E94BA002BB330E1C39FC0011124922FEA
:1002B0009F70892B8BBB41E063E081E00E94BA0014
:1002C0008FE99FE00197F1F700C0000040E063E094
:1002D00081E00E94BA008FE19EE40197F1F700C02F
:1002E0000000CF91089541E061E081E00E94490063
:1002F00041E062E081E00E94490041E063E081E08A
:100300000E94490041E064E080E00E94490041E031
:1003100065E080E00E94490041E066E080E00E94E4
:10032000490041E067E080E00E9449002FEF81EE44
:1003300094E0215080409040E1F700C0000083E34A
:100340000E942B0182E30E942B0188E20E942B0174
:100350008CE00E942B0181E00E942B0186E00E942C
:100360002B0182E00E942B0108950E943E000E9412
:1003700073010E9490020E94CD010E94E4012FEFC0
:1003800089E698E1215080409040E1F700C00000EC
:100390000E94A3020E94EA01FBCF41E064E081E0F9
:1003A0000E94490041E065E081E00E94490040E090
:1003B00066E081E00E94490041E067E081E00E9440
:1003C000490083E58DB9089541E064E081E00E9431
:1003D000BA0008958FB9779BFECF8FB108951F9211
:1003E0000F920FB60F9211242F933F934F935F9369
:1003F0006F937F938F939F93AF93BF93EF93FF93ED
:100400008091640090916500A0916600B0916700B2
:100410000196A11DB11D8093640090936500A09387
:100420006600B093670040916E0050916F0060913C
:1004300070007091710084179507A607B70781F4C3
:100440008091720082BF1092640010926500109239
:10045000660010926700E0917300F09174000995B6
:10046000FF91EF91BF91AF919F918F917F916F918C
:100470005F914F913F912F910F900FBE0F901F9062
:1004800018951F920F920FB60F9211242F933F933E
:100490004F935F936F937F938F939F93AF93BF938C
:1004A000EF93FF938091600090916100A0916200B2
:1004B000B09163000196A11DB11D809360009093DF
:1004C0006100A0936200B093630040916800509176
:1004D000690060916A0070916B0084179507A60708
:1004E000B70769F4109260001092610010926200E8
:1004F00010926300E0916C00F0916D000995FF91FE
:10050000EF91BF91AF919F918F917F916F915F918B
:100510004F913F912F910F900FBE0F901F90189504
:1005200041E061E083E00E94490040E060E083E058
:100530000E9449008AB188618AB980B5866880BD09
:1005400083E389B908955F9BFECF8CB10895F89439
:02055000FFCFDB
:00000001FF
